00099597200KFRIGORIFICO LAS BRASAS SOCIEDAD ANONIMA 035BANCO SANTIAGO00007257552000903022020185200MONEDA LOCALPESOS DE CHI0000270000000031012020+000000008945940003022020+00000017704699000000000168101050000000000000000000000000000000000000000000000000000000000000000000000
0302A00973024842172K Transf. CHAUPI VELA 120111100000000004873000401Agustinas      
0302A01586Depósitos en efectivo Tesorerí 425714200000000133473000045Arica          
0302A01586Depósitos en efectivo Tesorerí 425711000000000064926000045Arica          
0302A01586Depósitos en efectivo Tesorerí 425710900000000027342000045Arica          
0302A01586Depósitos en efectivo Tesorerí 425710300000000075750000045Arica          
0302A01586Depósitos en efectivo Tesorerí 407359900000000054354000045Arica          
0302A01586Depósitos en efectivo Tesorerí 425711200000000077440000045Arica          
0302A01586Depósitos en efectivo Tesorerí 425986800000000089918000045Arica          
0302A01586Depósitos en efectivo Tesorerí 425986700000000117644000045Arica          
0302A01586Depósitos en efectivo Tesorerí 425987100000000169384000045Arica          
0302A01586Depósitos en efectivo Tesorerí 425986900000000195746000045Arica          
0302A01586Depósitos en efectivo Tesorerí 425711700000000014500000045Arica          
0302A01586Depósitos en efectivo Tesorerí 425711300000000100000000045Arica          
0302A01586Depósitos en efectivo Tesorerí 407362200000000070000000045Arica          
0302A01586Depósitos en efectivo Tesorerí 425711100000000095000000045Arica          
0302A01586Depósitos en efectivo Tesorerí 425711600000000100000000045Arica          
0402A00973024842172K Transf. CHAUPI VELA 120318100000000009149200401Agustinas      
0302A0    Depos.Docto.M.Banco            000000000000000016470000045Arica          
0302A0    Depos.Docto.M.Banco            000000000000000051200000045Arica          
0302A0    Depos.Docto.O.Bancos           000000000000000037050000045Arica          
0302A0    Depos.Docto.M.Banco            000000000000000016071800045Arica          
0302A0    Depos.Docto.M.Banco            000000000000000021512000045Arica          
0302A0    Depos.Docto.O.Bancos           000000000000000018600000045Arica          
0302A0    Depos.Docto.O.Bancos           000000000000000059477900045Arica          
0302A0    Depos.Docto.O.Bancos           000000000000000009300000045Arica          
0302A0    Depos.Docto.O.Bancos           000000000000000020919500045Arica          
0302A0    Depos.Docto.O.Bancos           000000000000000030910100045Arica          
